:020000040000FA
:0600000080EF1AF012006F
:0A0006000100483500006000000012
:040010005800000094
:0C0014001B5B324A1B5B316DDBDBDB1B2E
:100020005B34326DB2B21B5B33326D1B5B34376DA8
:10003000B1B2B21B5B34306DDBDBDBDBDBDBDBDB8C
:10004000DFDFDFDFDFDFDFDFDFDFDFDFDFDFDFDFC0
:10005000DFDFDFDFDFDFDBDBDBDBDBDBDBDBDBDBD8
:10006000DBDBDBDBDBDBDBDBDBDBDBDBDBDBDCDCDE
:10007000DCDCDC1B5B306D0D0A1B5B316D1B5B3305
:10008000326D1B5B34376DB21B5B33376D1B5B34DA
:10009000326DB2B2B11B5B33326D1B5B34306DDB42
:1000A000DBDBDBDFDFDFDF1B5B306D201B5B316DFC
:1000B000DCDCDCDC1B5B34366DB2DBB2B2DBDBB22A
:1000C0001B5B33366D1B5B34376DB2B2B21B5B34D6
:1000D000306DDBDBDBDBDBDBDBDBDBDBDCDCDCDC85
:1000E0001B5B306D201B5B316D1B5B33326DDFDFC3
:1000F000DFDFDFDFDBDBDBDBDBDBDBDBDBDBDBDB40
:10010000DBDBDBDBDBDBDBDBDBDBDBDBDCDCDC1BFC
:100110005B306D0D0A1B5B316D1B5B34326DB1B111
:100120001B5B33326D1B5B34306DDBDBDF1B5B3005
:100130006D201B5B316DDCDCDCDB1B5B34366DB2B0
:10014000B2B1B11B5B33366D1B5B34376DB2B21B82
:100150005B34306DDBDBDBDBDBDBDB1B5B34366D29
:10016000DFDFDFDFDFDF1B5B34306DDBDBDBDBDBC7
:10017000DBDBDBDBDBDBDBDBDBDBDBDBDBDCDCDCCC
:10018000DCDC1B5B306D201B5B316D1B5B33326D28
:10019000DFDFDFDFDFDFDFDFDFDFDFDBDBDBDBDB83
:1001A000DBDBDBDBDBDBDBDBDC1B5B306D0D0A1B56
:1001B0005B316D1B5B33326D1B5B34376DB21B5B88
:1001C00034306DDBDF1B5B33376D20DCDB1B5B34D6
:1001D000366DB21B5B33366D1B5B34376DB2B21BB1
:1001E0005B34306DDBDB1B5B34366DDF1B5B343027
:1001F0006DDFDFDF1B5B306D1B5B33366DDF1B5B41
:1002000033376D1B5B36431B5B316D1B5B33316DCD
:10021000DCDCDCDCDCDCDCDCDCDCDCDCDC201B5B1C
:1002200033376DDFDFDFDF1B5B34376DDB1B5B34A8
:10023000366DB2B2DBB21B5B33366D1B5B34376D90
:10024000B2B2B21B5B34306DDBDBDBDBDBDBDBDB79
:10025000DBDBDBDBDBDBDBDCDCDCDCDCDCDCDCDCE5
:10026000DC1B5B306D1B5B33366DDCDCDCDCDCDC2B
:100270001B5B33376D0D0A1B5B316D1B5B33326DBE
:10028000DB1B5B33376D20DCDB1B5B34366DB21B55
:100290005B33366D1B5B34376DB2B2B21B5B3436E9
:1002A0006DDF1B5B306D1B5B33366DDF1B5B3337E4
:1002B0006D20201B5B316D1B5B33316DDCDCDCDBC7
:1002C000DBDBDBDBDBDBDBDBDBDBDBDBDBDBDBDB7E
:1002D000DBDBDBDBDBDBDBDCDCDCDCDC1B5B306DC2
:1002E000201B5B316DDFDFDFDFDB1B5B33366D1B1C
:1002F0005B34376DB21B5B33376D1B5B34366DB2CD
:100300001B5B33366D1B5B34306DDBDBDBDBDBDB38
:10031000DBDBDBDBDBDBDBDBDBDBDBDBDBDBDBDB2D
:10032000DBDBDBDB1B5B306D1B5B33366DDB1B5BB1
:1003300033376D0D0A1B5B316D1B5B33326DDB1B7D
:100340005B33366DDE1B5B33376DDB1B5B33366D2A
:100350001B5B34376DB21B5B34306DDBDB1B5B34F6
:10036000366DDF1B5B306D1B5B33366DDF1B5B3324
:10037000376D201B5B33366DDCDC1B5B33376D2048
:1003800020201B5B316D1B5B33316DDFDFDFDFDF77
:10039000DBDBDBDBDBDBDBDBDBDBDBDBDBDBDBDBAD
:1003A000DBDBDBDBDBDBDBDBDBDBDBDBDBDCDC1B5B
:1003B0005B306D20201B5B316DDFDFDB1B5B333679
:1003C0006D1B5B34376DB2B11B5B34306DDBDCDC35
:1003D0001B5B33376D2020DFDFDFDFDFDB1B5B33B1
:1003E000366D1B5B34376DB21B5B34306DDBDBDF8E
:1003F000DFDFDFDFDFDF1B5B306D1B5B33366DDB89
:100400001B5B33376D0D0A1B5B316D1B5B33326D2C
:10041000201B5B33366DDB1B5B33376DDB1B5B33C4
:10042000366DDBDBDB1B5B306D1B5B33366DDDDC80
:10043000DB1B5B316D1B5B34366DDC1B5B34306D5D
:10044000DBDBDBDBDBDBDCDCDCDCDCDCDCDCDC1BB3
:100450005B306D201B5B316D1B5B33316DDEDBDB95
:10046000DBDBDBDBDBDBDBDBDBDBDBDBDBDBDBDBDC
:10047000DF1B5B306D20201B5B316D1B5B33356DEB
:10048000DCDCDD1B5B306D1B5B33316DDEDBDC1BCD
:100490005B316D1B5B33366D201B5B306D201B5B4E
:1004A000316DDFDB1B5B33366D1B5B34376DB21B8D
:1004B0005B34306DDBDBDCDC1B5B33376D201B5BBF
:1004C00033326DDB1B5B33376D20DCDB1B5B33367C
:1004D0006D1B5B34376DB21B5B34306DDBDB1B5B3C
:1004E000306D201B5B316D1B5B33326DDBDBDBDB87
:1004F000DCDC1B5B306D0D0A1B5B316D1B5B33322B
:100500006D201B5B33366DDB1B5B34376DB21B5BC1
:1005100034306DDBDBDBDBDBDBDBDBDBDBDBDBDBEB
:10052000DBDBDBDBDBDBDBDBDB1B5B306D201B5B6F
:10053000316D1B5B33316DDEDBDBDBDBDBDBDBDB20
:10054000DBDBDBDBDBDBDBDBDBDB1B5B306D201BCF
:100550005B316DDB1B5B33356D1B5B34376DB11B62
:100560005B34306DDBDBDD1B5B306D1B5B33316D72
:10057000DEDBDBDBDB1B5B33336DDC1B5B33376DBF
:10058000201B5B316DDFDB1B5B34366DB21B5B33D5
:10059000366D1B5B34306DDBDBDC1B5B33326D2077
:1005A000201B5B33376DDB1B5B33366D1B5B3437D6
:1005B0006DB21B5B34306DDBDB1B5B306D201B5B76
:1005C000316D1B5B33326DDCDBDBDBDBDBDBDB1B51
:1005D0005B306D0D0A1B5B316D1B5B33326D201B75
:1005E0005B33366DDBDBDBDB1B5B34356DB21B5BFA
:1005F00033356D1B5B34306DDD1B5B306D20201B94
:100600005B316D1B5B33316DDCDCDCDCDCDCDC1B8B
:100610005B306D201B5B316D1B5B33366DDFDFDFC5
:10062000DFDFDFDF1B5B306D1B5B33366DDF1B5B9A
:1006300033376D201B5B316D1B5B33316DDEDBDBD4
:10064000DBDBDBDBDBDBDBDBDBDBDBDBDBDBDB1BBA
:100650005B306D1B5B33316DDB1B5B33376D201BF8
:100660005B316DDB1B5B33356D1B5B34376DB11B51
:100670005B34306DDBDBDD1B5B33366D201B5B33A6
:10068000306D1B5B34316D7469661B5B306D1B5BB9
:1006900033316DDB1B5B33336D1B5B34316DDF1B23
:1006A0005B34306DDBDC1B5B33376D201B5B316DE6
:1006B000DBDB1B5B33366DDBDBDC1B5B33376D2039
:1006C000DB1B5B33356D1B5B34366DB01B5B333628
:1006D0006D1B5B34306DDBDB1B5B306D201B5B31D6
:1006E0006D1B5B33326DDBDBDBDBDBDBDBDB1B5B07
:1006F000306D0D0A1B5B316D1B5B33326D201B5B54
:1007000033366DDEDB1B5B34356DB2B2B21B5B334F
:10071000356D1B5B34306DDD1B5B306D201B5B3139
:100720006D1B5B33316DDEDBDBDBDBDBDBDBDBDB84
:10073000DBDBDBDBDBDBDBDBDBDBDBDBDBDBDBDB09
:10074000DBDBDBDBDBDBDBDBDBDB1B5B34316DDDF6
:100750001B5B306D201B5B316DDFDB1B5B33356D4D
:100760001B5B34376DB11B5B34306DDBDB1B5B30E7
:100770006D201B5B316D1B5B33366D201B5B333093
:100780006D1B5B34316D6F6164611B5B306D1B5B96
:1007900033316DDB1B5B33336DDBDD1B5B316D1B7D
:1007A0005B33376DDEDB1B5B34366DB11B5B333681
:1007B0006D1B5B34356DB2B11B5B34306DDC1B5B84
:1007C00033376D1B5B34376DDB1B5B33356D1B5B68
:1007D00034366DB0B01B5B33366D1B5B34356DB199
:1007E0001B5B306D201B5B316D1B5B33326DDBDBC4
:1007F000DBDBDBDBDBDB1B5B306D0D0A1B5B316D99
:100800001B5B33346DDC1B5B33376D201B5B333676
:100810006DDF1B5B34356DB1B1B11B5B33356D1BC7
:100820005B34366DB21B5B34306DDC1B5B33366D75
:10083000201B5B306D1B5B33316DDF1B5B316D1B30
:100840005B34316DDFDF1B5B34306DDBDBDBDBDB2F
:10085000DBDBDBDBDBDBDBDBDBDBDBDBDBDBDBDBE8
:10086000DBDBDBDBDBDBDBDBDBDBDB1B5B34316DD7
:10087000DD1B5B306D1B5B33316DDB1B5B33376D19
:10088000201B5B316DDB1B5B33356D1B5B34376DC0
:10089000B11B5B34306DDBDBDBDC1B5B33366D2087
:1008A0001B5B306D1B5B33316DDF1B5B316D1B5B85
:1008B00033306D1B5B34316D6D1B5B306D1B5B33F7
:1008C000316DDBDBDB1B5B33336DDB1B5B33376D88
:1008D000201B5B316DDB1B5B34376DDB1B5B333601
:1008E0006D1B5B34356DB11B5B33356D1B5B343673
:1008F0006DB2B21B5B33366D1B5B34356DB0B01B14
:100900005B33356D1B5B34366DB11B5B34306DDD95
:100910001B5B33326DDCDBDBDBDBDBDBDBDB1B5B65
:10092000306D0D0A1B5B316D1B5B33346DDBDB1BE4
:100930005B33376D201B5B306D1B5B33356DDF1B0D
:100940005B316D1B5B34376DB21B5B34366DB21B94
:100950005B34306DDBDBDB1B5B306D1B5B33356D7C
:10096000DC1B5B316D1B5B33366D201B5B306D1BFD
:100970005B33316DDFDF1B5B316D1B5B34316DDF52
:10098000DFDF1B5B34306DDBDBDBDBDBDBDBDBDBAF
:10099000DBDBDBDBDBDFDFDFDFDFDFDBDBDBDBDB8F
:1009A000DBDBDBDB1B5B306D1B5B33316DDB1B5B30
:1009B00033376D201B5B316DDB1B5B33356D1B5B90
:1009C00034376DB11B5B34306DDB1B5B34356DDF51
:1009D0001B5B34306DDBDB1B5B34356DDC1B5B304C
:1009E0006D1B5B33356DDC1B5B33376D201B5B335D
:1009F000316DDFDFDB1B5B33336DDB1B5B33376D4F
:100A0000201B5B316D1B5B33356DDB1B5B34366D3F
:100A1000B2B21B5B34306DDBDD1B5B34356DDE1B2E
:100A20005B34306DDBDBDD1B5B33326DDBDBDBDB53
:100A3000DBDBDB1B5B34336DB11B5B33336D1B5B6B
:100A400034326DB11B5B306D0D0A1B5B316D1B5B6E
:100A500033346DDBDBDBDC1B5B306D201B5B333544
:100A60006DDF1B5B316DB2B2DBDBDB1B5B34356DE5
:100A7000DC1B5B34306DDC1B5B306D1B5B33356D19
:100A8000DC1B5B316D1B5B33366D201B5B306D1BDC
:100A90005B33316DDFDFDFDB1B5B316D1B5B3431C3
:100AA0006DDF1B5B34306DDBDBDBDBDBDBDBDBDB00
:100AB0001B5B33366D201B5B33376DDB1B5B3437C1
:100AC0006DDB1B5B34356DB2B11B5B33356D1B5B6E
:100AD00034376DB21B5B34306DDC1B5B33366D20FD
:100AE0001B5B33316DDFDBDBDBDBDBDB1B5B3431E3
:100AF0006D201B5B306D1B5B33316DDF1B5B333750
:100B00006D201B5B316DDB1B5B33356D1B5B34373D
:100B10006DB11B5B34306DDBDB1B5B306D1B5B33FE
:100B2000356DDE1B5B316D1B5B34356DDF1B5B345C
:100B3000306DDBDBDB1B5B34356DDC1B5B34306D18
:100B4000DC1B5B306D1B5B33356DDC1B5B33376D42
:100B500020201B5B316D1B5B33356DDEDBDBDBDDAA
:100B60001B5B34356DDE1B5B34306DDBDBDD1B5B0B
:100B700033326DDBDBDBDBDBDBDB1B5B33336D1B42
:100B80005B34326DB1DB1B5B306D0D0A1B5B316D6D
:100B90001B5B33346DDBDBDBDBDBDC1B5B33366D9C
:100BA000201B5B306D1B5B33356DDF1B5B316D1BB9
:100BB0005B34356DDF1B5B34306DDB1B5B34376DB5
:100BC000B2B21B5B33376D1B5B34356DB1B1B1B164
:100BD0001B5B33356DDC1B5B34306DDCDC1B5B3049
:100BE0006D1B5B33356DDC1B5B316D1B5B33366D11
:100BF000201B5B306D1B5B33316DDFDFDFDFDB1B09
:100C00005B316D1B5B34316DDFDFDF1B5B33366DBA
:100C10001B5B34306D201B5B33376DDFDB1B5B34BC
:100C2000356DB2B21B5B33356D1B5B34376DB1B2C2
:100C30001B5B34306DDBDC1B5B33366D201B5B33A1
:100C4000316DDFDBDBDB1B5B34316D201B5B306D1B
:100C50001B5B33316DDF1B5B33376D201B5B316DED
:100C6000DB1B5B34356DB2B11B5B33356D1B5B3405
:100C7000306DDBDF1B5B33326D201B5B306D201B67
:100C80005B33356DDF1B5B316DDF1B5B34356DDF37
:100C90001B5B34306DDBDBDBDB1B5B34356DDCDC9D
:100CA0001B5B34306DDBDBDB1B5B306D1B5B33357B
:100CB0006DDD1B5B316D1B5B34356DDEDB1B5B3427
:100CC000306DDBDD1B5B33326DDBDBDBDBDB1B5BCA
:100CD00034336DB11B5B33336D1B5B34326DB1B19B
:100CE000DB1B5B306D0D0A1B5B316D1B5B33346DA1
:100CF000DBDBDBDBDBDBDBDCDC1B5B306D1B5B3383
:100D0000356DDF1B5B316DDF1B5B34356DDF1B5BCE
:100D100033376DB2B21B5B33356D1B5B34306DDB2B
:100D20001B5B33376D1B5B34356DB2B2B2B21B5BEC
:100D300033356D1B5B34306DDBDBDBDB1B5B34354C
:100D40006DDC1B5B34306DDCDCDC1B5B306D1B5BF6
:100D500033356DDC1B5B316D1B5B33366D201B5BEC
:100D6000306D1B5B33316DDF1B5B33376D20201B18
:100D70005B316DDFDB1B5B34376DDB1B5B33356D4C
:100D8000B21B5B34306DDBDBDBDC1B5B306D201BAF
:100D90005B33316DDFDF1B5B33376D20201B5B3135
:100DA0006DDB1B5B34366DB21B5B34356DB11B5B89
:100DB000306D1B5B33356DDB1B5B316DDF1B5B30D7
:100DC0006D201B5B316D1B5B33326DDBDBDC1B5B32
:100DD000306D2020201B5B33356DDF1B5B316DDFF9
:100DE000DFDFDFDFDF1B5B34356DDF1B5B306D1B4F
:100DF0005B33356DDDDF1B5B316DDFDFDF1B5B33AD
:100E0000326D20DBDB1B5B34336DB11B5B33336D29
:100E10001B5B34326DB11B5B34306DDBDBDBDF1B06
:100E20005B306D0D0A1B5B316D1B5B33346DDBDB9F
:100E3000DBDBDBDBDBDBDBDBDBDCDC1B5B33366DFB
:100E4000201B5B306D1B5B33356DDF1B5B316DDF52
:100E50001B5B34356DDF1B5B34376DB2B2B2B21B36
:100E60005B34306DDBDBDBDBDBDBDBDBDBDBDB1BD2
:100E70005B34356DDCDC1B5B34376DB21B5B3435AA
:100E80006DDF1B5B34306DDBDBDBDBDBDC201B5B16
:100E900033326DDFDCDC201B5B33376D1B5B34359D
:100EA0006DB11B5B33326D1B5B34306D20DCDBDBE3
:100EB000DBDBDBDBDBDBDBDBDBDBDBDCDCDCDCDB7E
:100EC000DBDB1B5B33336D1B5B34326DB1B1B11BAC
:100ED0005B34306DDBDBDF1B5B33376DDF1B5B307F
:100EE0006D0D0A1B5B316D1B5B33346DDBDBDBDBB4
:100EF000DBDBDBDBDBDBDBDBDBDBDCDCDCDCDC1BFD
:100F00005B33366D201B5B306D1B5B33356DDF1B38
:100F10005B316DDFDFDFDF1B5B34356DDF1B5B3487
:100F2000306DDBDBDBDBDBDB1B5B34356DDF1B5B61
:100F300034306DDFDF1B5B306D1B5B33356DDF1BCA
:100F40005B316DDEDBDBDBDB1B5B34356DDF1B5BBD
:100F5000306D1B5B33356DDB1B5B316D1B5B3332DF
:100F60006D2020DFDCDCDCDBDBDBDBDBDBDBDBDBAE
:100F7000DBDBDBDB1B5B33336D1B5B34326DB1B210
:100F8000B21B5B34306DDBDBDBDBDBDBDFDF1B5B12
:100F9000306D0D0A1B5B316D1B5B33346D1B5B3495
:100FA000346DB21B5B34306DDBDBDBDBDBDBDBDBCF
:100FB000DBDBDBDBDBDBDBDBDBDBDB1B5B34346D7D
:100FC000B2B2B0B11B5B306D1B5B33346DDCDCDC6B
:100FD000DCDCDCDCDCDCDCDBDB1B5B316D1B5B339A
:100FE000356DDEDFDF1B5B34356DDF1B5B306D1B6A
:100FF0005B33356DDBDF1B5B316D201B5B33326D8B
:10100000DC1B5B33336D1B5B34326DB2B11B5B3366
:10101000326D1B5B34306DDCDBDBDBDBDBDBDBDB36
:10102000DBDBDB1B5B33336D1B5B34326DB21B5B75
:1010300034306DDBDBDBDBDBDFDF1B5B33376DDFAE
:101040001B5B306D0D0A1B5B316D1B5B33346DDF39
:10105000DBDB1B5B34326DB1B1B11B5B34306DDB5C
:10106000DBDBDBDBDBDBDBDBDBDBDBDBDBDBDBDBD0
:10107000DB1B5B34346DDC201B5B306D1B5B33345E
:101080006DDBDBDFDFDFDF1B5B33376D20202020F4
:101090001B5B316D1B5B33356DDEDCDCDC1B5B30D9
:1010A0006D1B5B33356DDD1B5B33376D20201B5BA8
:1010B000316D1B5B33336DDFDF1B5B33326DDFDF85
:1010C000DBDBDBDBDBDBDBDB1B5B33336D1B5B3455
:1010D000326DB11B5B34306DDBDBDFDF1B5B306DF2
:1010E0000D0A1B5B316D1B5B33346D202020DFDF6D
:1010F000DFDBDBDBDBDB1B5B34326DB2B2B11B5BF6
:1011000034306DDBDBDBDBDBDBDBDBDBDBDBDB1BAF
:101110005B306D1B5B33346DDD1B5B33376D201B28
:101120005B316D2E202A2A2A2A2A2A206C6F6769B1
:101130006E20616C72656164791B5B33326DDFDF39
:101140001B5B34336DB1B11B5B33336D1B5B3437C9
:101150006DDB1B5B34306DDF1B5B306D0D0A1B5B81
:1011600039431B5B316D1B5B33346DDFDFDFDFDB4E
:10117000DBDBDB1B5B34326DB21B5B34306DDBDBE6
:10118000DBDBDBDBDBDB1B5B306D1B5B33346DDD03
:10119000201B5B316D1B5B33376D7C1B5B306D1B24
:1011A0005B3230431B5B316D1B5B33306D20201B8A
:1011B0005B306D20201B5B316DDF1B5B306D0D0ADA
:1011C0001B5B3136431B5B316D1B5B33346DDFDFE3
:1011D000DBDB1B5B34326DB11B5B34306DDBDBDB87
:1011E000DBDB1B5B306D20201B5B316D602D2D3EEA
:1011F000201B5B306D1B5B33316D1B5B34376D2007
:1012000020484F4C59202A2A2A2A2049274D201BA2
:101210005B356D434F4D494E471B5B306D1B5B3358
:10122000316D1B5B34376D20201B5B33376D1B5BCF
:1012300034306D201B5B316D2D2D2D2D2C1B5B3023
:101240006D1B5B3230431B5B316D1B5B33346DDFD9
:101250001B5B34376DDB1B5B34336DB1B11B5B3310
:10126000306D1B5B34306DDF1B5B306D1B5B3337C8
:10127000431B5B316D7C1B5B306D1B5B3232431B50
:101280005B316D201B5B306D1B5B3134431B5B316D
:101290006D72656B637566726568746F6D64726F8D
:1012A00077737361701B5B306D201B5B316D3C2D60
:1012B0002D2D271B5B306D1B5B3532432D2D2054AC
:1012C00049466F6144414D202841736369692D612E
:1012D000727420636F757274657379206F6620680D
:1012E0007474703A2F2F7369787465656E636F6CD0
:0A12F0006F72732E6E65742F2900D3
:0612FA00D9CFE6FFE1CFB1
:10130000D9FF060EE126040EE66EE66A60EC15F0E3
:10131000E552E552020EDB6A030EDB6A020EDBCFFA
:1013200014F0030EDBCF15F0D890155004E6170E1D
:10133000145C000E155801E337D116EC19F0F3CF09
:1013400016F0F4CF17F0F350F41001E02DD1020E97
:10135000DBCF16F0030EDBCF17F0040ED890163655
:101360001736E806FBE1FD0EDB501624146EFE0E68
:10137000DB501720156E14C0DEFFDD6E020EDBCFD2
:1013800014F0030EDBCF15F0020E1424E66E010EEE
:10139000E66ED1EC15F0E552E5520B0EE66EE66A0C
:1013A0000CEC15F0E552E552080EF36E040EF3CF87
:1013B000DBFF050EDB6A040EDB06050E01E2DB0631
:1013C000DECF14F0DDCF15F0040E086E096ADBCF16
:1013D0000DF0050EDBCF0EF0EEEC19F0065014C048
:1013E000E9FF15C0EAFF05E0D890EA32E932E804E7
:1013F000FBE10F0EE916000EEA16A50EE926000E17
:10140000EA22EF50E66E02EC19F0E552040EDBCF53
:1014100014F0050EDBCF15F0153404E2145000086B
:10142000000E1554C8E32C0EE66E310EE66E000E6B
:10143000E66E47EC16F0E552E552E5520F0EE66E09
:10144000E66A0CEC15F0E552E552040EDB6A050E77
:10145000DB6A040EDBCF14F0050EDBCF15F0D8905D
:10146000155004E6100E145C000E155843E2DECF52
:10147000E9FFDDCFEAFFEF380F0BEA6AA50FE96E4F
:10148000000EEA22EF50E66E02EC19F0E552DECFD4
:10149000E9FFDDCFEAFFEF500F0BEA6AA50FE96E17
:1014A000000EEA22EF50E66E02EC19F0E552DF2A58
:1014B000010E01E3DB2A200EE66E02EC19F0E55284
:1014C000D950040FE96EDACFEAFF070EEE180CE1EF
:1014D000ED500AE12D0EE66E02EC19F0E552200EF9
:1014E000E66E02EC19F0E552040EDB2A050EB1E3BC
:1014F000DB2AAFD7B30EE66E02EC19F0E552200EF0
:10150000E66E02EC19F0E552020EDBCF16F0030E88
:10151000DBCF17F0040ED89016361736E806FBE13D
:10152000FD0EDB501624146EFE0EDB501720156ED8
:1015300014C0DEFFDD6E040EDB6A050EDB6A040EEE
:10154000DBCF14F0050EDBCF15F0D890155004E674
:10155000100E145C000E15581EE2DECFE9FFDDCF41
:10156000EAFFEFCF14F0200E145C06E3DECFE9FFB4
:10157000DDCFEAFFEF5001D02E0EE66E02EC19F03F
:10158000E552DF2A010E01E3DB2A040EDB2A050EF9
:10159000D6E3DB2AD4D7C8EC14F0020EDB2A030E04
:1015A00001E2BCD6DB2ABAD6060EE15C02E2E16AB1
:1015B000E552E16EE552E7CFD9FF1200D9CFE6FF41
:1015C000E1CFD9FF040EE126470EE66EE66AA7ECEE
:1015D00015F0E552E552B3EC14F0000EE66EE66A43
:1015E0000CEC15F0E552E552060EE66EE66A60EC8C
:1015F00015F0E552E552E50EE66E310EE66E000E90
:10160000E66E47EC16F0E552E552E552C8EC14F0F0
:10161000F2EC14F0600EE66E000EE66E95EC12F041
:10162000E552E552FD0EDBCF08F0FE0EDBCF09F0F0
:10163000020E08C0DBFF030E09C0DBFF020EDBCF8A
:10164000E6FF030EDBCFE6FF58DEE552E5522CEC59
:1016500019F0F3CFDEFFF4CFDDFF000EDFCF08F08F
:10166000010EDBCF09F0440E081802E1010E091843
:1016700001E176D0510E081802E1010E091866E06A
:10168000490E081802E1010E09184AE0500E081828
:1016900002E1010E09183DE0480E081802E1010EB2
:1016A000091825E04D0E081802E1010E091819E08D
:1016B0004B0E0818C3E1010E0918C0E1020EDBCF82
:1016C00014F0030EDBCF15F01534B8E21450000807
:1016D000000E1554B3E2020EDB06030EAFE2DB068A
:1016E000ADD7020EDB2A030EA9E3DB2AA7D7020E31
:1016F000DBCF14F0030EDBCF15F0100E145C000EE0
:1017000015589CE3D950020FE96EDACFEAFF100EAC
:1017100019D0D950020FE96EDACFEAFF100E1CD0B3
:10172000020EDBCF14F0030EDBCF15F0700E145C4D
:10173000000E155801E282D7D950020FE96EDACFB8
:10174000EAFF700EEE5E000EED5A78D7D950020F08
:10175000E96EDACFEAFF700EEE26000EED226ED7AC
:10176000D8EC14F0040EE15C02E2E16AE552E16EAD
:10177000E552E7CFD9FF1200D9CFE6FFE1CFD9FF7D
:10178000020EE126070EE66EE66AA7EC15F0E552BA
:10179000E552B3EC14F01D0EE66E310EE66E000E4F
:1017A000E66E47EC16F0E552E552E55216EC19F0FC
:1017B000F3CF14F0F4CF15F0F350F410ECE02CEC70
:1017C00019F0F3CFDEFFF4CFDDFF080EE66E310E29
:1017D000E66E000EE66E47EC16F0E552E552E55275
:1017E000DFCFE6FF02EC19F0E552050EE66E310E92
:1017F000E66E000EE66E47EC16F0E552E552E55255
:10180000D9CFE9FFDACFEAFF1B0EEE18C4E1ED50A5
:10181000C2E1020EE15C02E2E16AE552E16EE552EC
:10182000E7CFD9FF1200D9CFE6FFE1CFD9FF2A0ECB
:10183000E126070EE66EE66AA7EC15F0E552E552E2
:10184000B3EC14F0280EDF6E0B0EE66EE66AA7EC22
:1018500015F0E552E552FE0EE66E300EE66E000E15
:10186000E66E47EC16F0E552E552E552070EE66EDD
:10187000E66AA7EC15F0E552E552D9CFE6FFDACFDC
:10188000E6FF72EC16F0E552E552280EF3CFDBFFCF
:10189000290EF4CFDBFFD950280FE96EDACFEAFF2B
:1018A000EE50ED101BE0280EDBCFE9FF290EDBCF59
:1018B000EAFFEF50710812E1010EE76E280EDBCF50
:1018C000E9FF290EDBCFEAFFE750E926000EEA2206
:1018D000EF5004E12A0EE15C3AE237D00F0EE66EDB
:1018E000E66AA7EC15F0E552E552E10EE66E300E21
:1018F000E66E000EE66E47EC16F0E552E552E55254
:10190000090EE66EE66AA7EC15F0E552E552DF0E29
:10191000E66E300EE66E000EE66E47EC16F0E5520F
:10192000E552E5520F0EE66EE66AA7EC15F0E552B9
:10193000E552C70EE66E300EE66E000EE66E47EC20
:1019400016F0E552E552E5527DD7E16AE552E16EC7
:10195000E552E7CFD9FF1200D9CFE6FFE1CFD9FF9B
:10196000020EE126010EE66EE66ED1EC15F0E552B0
:10197000E5522B0EE66EE66AA7EC15F0E552E5524D
:10198000DE6ADD6ADECF14F0DDCF15F0166AD8907E
:101990001650000A06E6500E145CC30E1558000ED1
:1019A00016585DE2BE0EE66E300EE66E000EE66E76
:1019B00047EC16F0E552E552E552DECF14F0DDCFEC
:1019C00015F0100E0D6E270E0E6E14C008F015C027
:1019D00009F06AEC1AF008C014F009C015F00A0EFC
:1019E0000D6E0E6A6AEC1AF004C014F005C015F012
:1019F000300E0424E66E02EC19F0E552DECF14F04E
:101A0000DDCF15F0E80E0D6E030E0E6E14C008F05B
:101A100015C009F06AEC1AF008C014F009C015F0FE
:101A20000A0E0D6E0E6A6AEC1AF004C014F005C0BE
:101A300015F0300E0424E66E02EC19F0E552B30EF8
:101A4000E66E300EE66E000EE66E47EC16F0E552DE
:101A5000E552E552DF2A010E95E3DB2A93D7020E09
:101A6000E15C02E2E16AE552E16EE552E7CFD9FFBF
:101A70001200D9CFE6FFE1CFD9FF020EE126DE6AE0
:101A8000DD6ADECFE6FFDDCFE6FF960EE66E000EE6
:101A9000E66E0A0EE66E080EE66E95EC0FF0146E1A
:101AA000060EE15E1450F3CFDEFFF4CFDDFFD9CF99
:101AB000E9FFDACFEAFFEE50E4E1EE50E2E1020E98
:101AC000E15C02E2E16AE552E16EE552E7CFD9FF5F
:101AD0001200070EE66EE66AA7EC15F0E552E55235
:101AE000B3EC14F0140E146E000E156E166A14C0CA
:101AF000E6FFE66E16C0E6FF47EC16F0E552E5524B
:101B0000E5522CEC19F0F3CF14F0F4CF15F01B0EC6
:101B1000F318F7E11550F5E11200D9CFE6FFE1CF58
:101B2000D9FF2C0EE1261F0EE66EE66A090EE66E60
:101B3000E66A280EE66EE66A0A0EE66EE66AE66E6B
:101B4000E66AA9EC13F0146E0A0EE15E14500C0E56
:101B5000E66EE66ED1EC15F0E552E552A20EE66EA9
:101B6000300EE66E000EE66E47EC16F0E552E552DA
:101B7000E5520E0EE66E0C0EE66ED1EC15F0E55257
:101B8000E5520F0EE66EE66AA7EC15F0E552E55257
:101B90002A0EDB6A2B0EDB6A2A0EDBCF14F02B0E2B
:101BA000DBCF15F0D890155004E6280E145C000E1B
:101BB00015580BE2200EE66E02EC19F0E5522A0EE3
:101BC000DB2A2B0EE9E3DB2AE7D70E0EE66E0C0EBE
:101BD000E66ED1EC15F0E552E552280EDF6ED9CF56
:101BE000E6FFDACFE6FF72EC16F0E552E552280E7A
:101BF000F3CFDBFF290EF4CFDBFF100EE66E0C0EE9
:101C0000E66ED1EC15F0E552E552010EDB500EE127
:101C10009F0EE66EE66AA7EC15F0E552E552860ED9
:101C2000E66E300EE66E000EE66E27D01F0EE66EF4
:101C3000E66AA7EC15F0E552E552770EE66E300E37
:101C4000E66E000EE66E47EC16F0E552E552E55200
:101C5000110EE66E0C0EE66ED1EC15F0E552E55273
:101C6000280EDBCF14F0290EDBCF15F0166A14C056
:101C7000E6FF15C0E6FF16C0E6FF47EC16F0E5529A
:101C8000E552E552F2EC14F0130EE66E170EE66E16
:101C9000D1EC15F0E552E5529F0EE66EE66AA7EC30
:101CA00015F0E552E552650EE66E300EE66E000E5A
:101CB000E66E47EC16F0E552E552E5522CEC19F0D1
:101CC000F3CF14F0F4CF15F01B0EF318F7E1155015
:101CD000F5E12C0EE15C02E2E16AE552E16EE552CB
:101CE000E7CFD9FF1200D9CFE6FFE1CFD9FF060E2B
:101CF000E1266AEC19F0040EDB6A050EDB6A040EBD
:101D0000E66EE66A60EC15F0E552E552B3EC14F0CD
:101D1000000EE66EE66A0CEC15F0E552E552060E92
:101D2000E66EE66A60EC15F0E552E552B20EE66E3C
:101D30002E0EE66E000EE66E47EC16F0E552E5520A
:101D4000E552C8EC14F0040EE66EE66A60EC15F09D
:101D5000E552E552020EE66EE66A0CEC15F0E5522D
:101D6000E552DE6ADD6ADECF14F0DDCF15F0D890E3
:101D7000155004E60D0E145C000E155801E37DD0DD
:101D8000DECF14F0DDCF15F00C0E1424E66E2E0E0F
:101D9000E66ED1EC15F0E552E552020EDB6A030E59
:101DA000DB6A020EDBCF14F0030EDBCF15F0D89008
:101DB000155004E6200E145C000E155858E2DECFD4
:101DC00017F0DDCF18F0050ED89017361836E80654
:101DD000FBE1020EDB501724146E030EDB501820BB
:101DE000156E166A15BE16680001B5511424F36EFF
:101DF000B6511520F46EB7511620F86EF4CFF7FFE8
:101E0000F3CFF6FF0800F550230802E1DB0E25D0E2
:101E1000DECF17F0DDCF18F0050ED8901736183644
:101E2000E806FBE1020EDB501724146E030EDB50B4
:101E30001820156E166A15BE16680001B5511424D7
:101E4000F36EB6511520F46EB7511620F86EF4CF2C
:101E5000F7FFF3CFF6FF0800F550E66E02EC19F03D
:101E6000E552020EDB2A030E9CE3DB2A9AD7DF2A17
:101E7000010E01E278D7DB2A76D7040EDBCFE6FF2E
:101E8000050EDBCFE6FF7E0EE66E000EE66E050E5B
:101E9000E66EE66E95EC0FF0146E060EE15E1450E1
:101EA000040EF3CFDBFF050EF4CFDBFF040EDBCF18
:101EB00008F0050EDBCF09F0070E081801E1095004
:101EC00032E0060E081801E109502BE0050E081853
:101ED00001E1095024E0040E081801E109501DE059
:101EE000030E081801E1095016E0020E081801E17E
:101EF00009500FE0010E081801E001D7095001E078
:101F0000FED6000EE66EE66ADEEC0AF0E552E55219
:101F1000F6D632DCF4D620DDF2D6ABDDF0D683DCAB
:0A1F2000EED6D7DDECD6F9DDEAD6E7
:061F2A00D9CFE6FFE1CF74
:101F3000D9FF0F0EE126F90EDBCF14F0FA0EDBCF3E
:101F400015F01406000E155A060E14C0DBFF070E1E
:101F500015C0DBFF140EF36E0A0EF3CFDBFF0B0E82
:101F6000DB6A0A0EDB6E0B0EDB6A080EDB6A090EFB
:101F7000DB6A080EDBCF17F0090EDBCF18F0030E7B
:101F80001802F3CF18F01702F3CF17F0F450182609
:101F9000FB0EDB50F324E96EFC0EDB501820EA6EDA
:101FA000EECF14F0EECF15F0EFCF16F01450151061
:101FB000161064E0040EDB6A050EDB6A040EDBCF4C
:101FC00016F0050EDBCF17F0186A17BE1868080E5A
:101FD000DBCF14F0090EDBCF15F0030E1502F3CFA3
:101FE00015F01402F3CF14F0F4501526FB0EDB505D
:101FF000F324E96EFC0EDB501520EA6EEE50162439
:10200000F36EEE501720F46EEE501820F86EF4CFF9
:10201000F7FFF3CFF6FF0800F55006E0040EDB2AC9
:10202000050ECCE3DB2ACAD7040EDBCF14F0050E75
:10203000DBCF15F00A0EDBCF16F00B0EDBCF17F05F
:1020400017501518E8AE02D0153404D01450165CA1
:10205000155017580CE2040EDBCF08F0050EDBCF4D
:1020600009F00A0E08C0DBFF0B0E09C0DBFF080EEB
:10207000DB2A090E01E27DD7DB2A7BD7D9500A0F74
:10208000E96EDACFEAFF020EEE26000EED22060E12
:10209000DBCF14F0070EDBCF15F00001800E151416
:1020A00017E1060EDBCF16F0070EDBCF17F0080E98
:1020B000DBCF18F0090EDBCF19F019501718E8AE76
:1020C00002D0173404D01650185C1750195804E287
:1020D000060EDB6A070EDB6AF2EC14F0600EE66EA9
:1020E000E66AA7EC15F0E552E552FD0EDBCFE6FF00
:1020F000FE0EDBCFE6FFD1EC15F0E552E552DA0E2D
:10210000E66E02EC19F0E552020EDB6A030EDB6AA2
:10211000020EDBCF14F0030EDBCF15F0020EE76EDC
:102120000A0EDBCF16F00B0EDBCF17F0E7501626AA
:10213000000E172215501718E8AE02D0173404D03D
:102140001650145C175015580BE2C40EE66E02ECE4
:1021500019F0E552020EDB2A030EDAE3DB2AD8D7A8
:10216000BF0EE66E02EC19F0E552020EDB6A030EBA
:10217000DB6A020EDBCF14F0030EDBCF15F0080E86
:10218000DBCF16F0090EDBCF17F015501718E8AEAD
:1021900002D0173404D01650145C1750155801E3C0
:1021A000D2D0FD0EDBCF16F0176A16BE1768020EEE
:1021B000DB501624146E030EDB501720156E010E33
:1021C0001424E66EFE0EDBCFE6FFD1EC15F0E552EF
:1021D000E552B30EE66E02EC19F0E552200EE66E03
:1021E00002EC19F0E552020EDBCF14F0030EDBCF48
:1021F00015F0060EDB5014180BE1070EDB50151816
:1022000007E10B0EE66EE66AA7EC15F0E552E55223
:102210000C0EDB6A0D0EDB6A0E0EDB6A040EDB6A47
:10222000050EDB6A040EDBCF14F0050EDBCF15F0D4
:102230000A0EDBCF16F00B0EDBCF17F01550171878
:10224000E8AE02D0173404D01650145C175015585D
:1022500062E20C0EDBCF14F00D0EDBCF15F00E0E8C
:10226000DBCF16F01450151016101EE00C0EDBCF4D
:10227000F6FF0D0EDBCFF7FF0E0EDBCFF8FF0800E9
:10228000F55012E0D9500C0FE96EDACFEAFFEFCF2C
:10229000F6FFEE2AEFCFF7FF000EEE22EFCFF8FFAA
:1022A000EE220800F55001D0200EE66E02EC19F087
:1022B000E5520C0EDBCF14F00D0EDBCF15F00E0E39
:1022C000DBCF16F01450151016101FE1020EDBCFF5
:1022D00014F0030EDBCF15F01502F3CF15F0140246
:1022E000F3CF14F0F4501526FB0EDB50F324E96E07
:1022F000FC0EDB501520EA6E0C0EEECFDBFF0D0E50
:10230000EECFDBFF0E0EEECFDBFF040EDB2A050E59
:1023100089E3DB2A87D7600EE66EE66AA7EC15F044
:10232000E552E552200EE66E02EC19F0E552B30ECE
:10233000E66E02EC19F0E552020EDB2A030E01E212
:1023400018D7DB2A16D7FD0EDBCF16F0176A16BE9C
:102350001768080EDB501624146E090EDB50172088
:10236000156E010E1424E66EFE0EDBCFE6FFD1ECF7
:1023700015F0E552E552C00EE66E02EC19F0E5529A
:10238000020EDB6A030EDB6A020EDBCF14F0030ED3
:10239000DBCF15F0020EE76E0A0EDBCF16F00B0E48
:1023A000DBCF17F0E7501626000E1722155017182E
:1023B000E8AE02D0173404D01650145C17501558EC
:1023C0000BE2C40EE66E02EC19F0E552020EDB2AB7
:1023D000030EDAE3DB2AD8D7D90EE66E02EC19F049
:1023E000E55216EC19F0F3CF14F0F4CF15F0F350DA
:1023F000F410F7E016EC19F0F3CF14F0F4CF15F069
:10240000F350F41001E168D62CEC19F0F3CFDEFFA5
:10241000F4CFDDFF000EDFCF08F0010EDBCF09F0B7
:102420000A0E081801E1095064E01B0E081801E1CA
:1024300009505AE0500E081802E1010E09182CE06C
:10244000480E081801E048D6010E091801E044D6EC
:10245000060EDBCF14F0070EDBCF15F015340CE2BF
:1024600014500008000E155407E2060EDB06070E96
:1024700001E332D6DB0630D6080EDBCF14F0090EAE
:10248000DBCF15F01406000E155A060E14C0DBFF44
:10249000070E15C0DBFF20D6060EDB2A070E01E370
:1024A000DB2A080EDBCF14F0090EDBCF15F0D95074
:1024B000060FE96EDACFEAFF14C00DF015C00EF07A
:1024C000EECF08F0EDCF09F015C0F5FFC8EC19F01C
:1024D000F5AE05D0041E051E042A000E052204C018
:1024E000EEFF05C0EDFFF8D5D8EC14F0F36AF46AFE
:1024F00012D0D8EC14F0010EE76E060EDBCF14F00C
:10250000070EDBCF15F0E7501426000E152214C07D
:10251000F3FF15C0F4FF0F0EE15C02E2E16AE55241
:10252000E16EE552E7CFD9FF1200D9CFE6FFE1CF48
:10253000D9FF070EE126190EE66E010EE66ED1EC0C
:1025400015F0E552E552030EDB6A040EDB6A030E5A
:10255000DBCF14F0040EDBCF15F0D890155004E655
:102560000A0E145C000E155801E3E9D00F0EE66E5A
:10257000E66A0CEC15F0E552E552000EE66EE66AEE
:1025800060EC15F0E552E552D950030FE96EDACF51
:10259000EAFFEE50ED1005E0200EE66E02EC19F0B9
:1025A000E552D950030FE96EDACFEAFF090EEE18B3
:1025B00009E1ED5007E1310EE66E02EC19F0E5524B
:1025C000300E15D0030EDBCF14F0040EDBCF15F068
:1025D0000A0E0D6E0E6A14C008F015C009F0C8ECA2
:1025E00019F004C014F005C015F0310E0424E66E95
:1025F00002EC19F0E552000EE66EE66A0CEC15F0FE
:10260000E552E552060EE66EE66A60EC15F0E5521C
:10261000E552030EDBCF1AF0040EDBCF1BF0030EE6
:102620001B02F3CF1BF01A02F3CF1AF0F4501B2653
:10263000FD0EDB50F324E96EFE0EDB501B20EA6E2C
:10264000EECF17F0EECF18F0EFCF19F017501810AB
:1026500019101EE0030EDBCF1CF0040EDBCF1DF0C3
:10266000030E1D02F3CF1DF01C02F3CF1CF0F4503B
:102670001D26FD0EDB50F324E96EFE0EDB501D20FF
:10268000EA6EEECF14F0EECF15F0EFCF16F003D0D8
:10269000146A156A166A14C0DFFF010E15C0DBFF4D
:1026A000020E16C0DBFF050EDB6A060EDB6A050EA6
:1026B000DBCF14F0060EDBCF15F0D890155004E6F2
:1026C000060E145C000E155833E2DFCF14F0010E35
:1026D000DBCF15F0020EDBCF16F0145015101610DC
:1026E0001CE0DFCFF6FF010EDBCFF7FF020EDBCFE2
:1026F000F8FF0800F55011E0D9CFE9FFDACFEAFF83
:10270000EFCFF6FFEE2AEFCFF7FF000EEE22EFCF6E
:10271000F8FFEE220800F55001D0200EE66E02EC24
:1027200019F0E552050EDB2A060EC1E3DB2ABFD7FE
:10273000030EDB2A040E01E20AD7DB2A08D7070EB4
:10274000E15C02E2E16AE552E16EE552E7CFD9FFD2
:102750001200D9CFE6FFE1CFD9FF040EE126F50E36
:10276000DBCFE6FFF60EDBCFE6FFA7EC15F0E55278
:10277000E552FB0EDBCFE6FFFD0EDBCFE6FFD1EC33
:1027800015F0E552E552DA0EE66E02EC19F0E5526C
:10279000DE6ADD6ADECF14F0DDCF15F0020EE76EE3
:1027A000F90EDBCF16F0FA0EDBCF17F0E750162646
:1027B000000E172215501718E8AE02D0173404D0B7
:1027C0001650145C175015580AE2C40EE66E02EC5F
:1027D00019F0E552DF2A010EDDE3DB2ADBD7BF0E5D
:1027E000E66E02EC19F0E552DE6ADD6ADECF14F027
:1027F000DDCF15F0F70EDBCF16F0F80EDBCF17F0BC
:1028000015501718E8AE02D0173404D01650145CD7
:102810001750155855E2FB0EDBCF16F0FC0EDBCF40
:1028200017F0DE501624146EDD501720156E010EC1
:102830001424E66EFD0EDBCFE6FFD1EC15F0E55279
:10284000E552B30EE66E02EC19F0E552200EE66E8C
:1028500002EC19F0E552020EDB6A030EDB6A020E8F
:10286000DBCF14F0030EDBCF15F0F90EDBCF16F043
:10287000FA0EDBCF17F015501718E8AE02D0173458
:1028800004D01650145C175015580BE2200EE66E5B
:1028900002EC19F0E552020EDB2A030EE0E3DB2A1C
:1028A000DED7200EE66E02EC19F0E552B30EE66EAE
:1028B00002EC19F0E552DF2A010E98E3DB2A96D7E5
:1028C000F70EDBCF16F0F80EDBCF17F0FB0EDB5068
:1028D0001624146EFC0EDB501720156E010E142406
:1028E000E66EFD0EDBCFE6FFD1EC15F0E552E552CA
:1028F000C00EE66E02EC19F0E552DE6ADD6ADECF4C
:1029000014F0DDCF15F0020EE76EF90EDBCF16F0F6
:10291000FA0EDBCF17F0E7501626000E17221550DF
:102920001718E8AE02D0173404D01650145C1750B4
:1029300015580AE2C40EE66E02EC19F0E552DF2AE1
:10294000010EDDE3DB2ADBD7D90EE66E02EC19F0CF
:10295000E552040EE15C02E2E16AE552E16EE55205
:06296000E7CFD9FF1200D1
:0A2966001B0EE66E02EC19F0E552BC
:102970005B0EE66E02EC19F0E552320EE66E02ECEA
:1029800019F0E5524A0EE66E02EC19F0E55212001B
:102990001B0EE66E02EC19F0E5525B0EE66E02ECE1
:1029A00019F0E5524B0EE66E02EC19F0E5521200FA
:1029B0001B0EE66E02EC19F0E5525B0EE66E02ECC1
:1029C00019F0E552320EE66E02EC19F0E552350EC2
:1029D000E66E02EC19F0E552680EE66E02EC19F0B4
:1029E000E55212001B0EE66E02EC19F0E5525B0E8A
:1029F000E66E02EC19F0E552320EE66E02EC19F0CA
:102A0000E552350EE66E02EC19F0E5526C0EE66EFC
:102A100002EC19F0E5521200D9CFE6FFE1CFD9FF61
:102A20001B0EE66E02EC19F0E5525B0EE66E02EC50
:102A300019F0E552FD0EDB50080B02E0310E01D01B
:102A4000320EE66E02EC19F0E5526D0EE66E02EC07
:102A500019F0E5521B0EE66E02EC19F0E5525B0E22
:102A6000E66E02EC19F0E552330EE66E02EC19F058
:102A7000E552070EE76EFD0EDBCF14F0FE0EDBCF46
:102A800015F0E7501416156A0A0E0D6E0E6A14C082
:102A900008F015C009F0C8EC19F004C014F005C026
:102AA00015F0300E0424E66E02EC19F0E5526D0EBE
:102AB000E66E02EC19F0E552E552E7CFD9FF1200BD
:102AC000D9CFE6FFE1CFD9FF1B0EE66E02EC19F07D
:102AD000E5525B0EE66E02EC19F0E552FD0EDB509E
:102AE000080B02E0350E01D0360EE66E02EC19F04E
:102AF000E5526D0EE66E02EC19F0E5521B0EE66E25
:102B000002EC19F0E5525B0EE66E02EC19F0E552AC
:102B1000340EE66E02EC19F0E552070EE76EFD0E7C
:102B2000DBCF14F0FE0EDBCF15F0E7501416156A5C
:102B3000300E1424E66E02EC19F0E5526D0EE66ECE
:102B400002EC19F0E552E552E7CFD9FF1200D9CFD8
:102B5000E6FFE1CFD9FF0F0EE76EFD0EDBCF14F0DD
:102B6000E7501416156A14C0E6FF15C0E6FF54DFDF
:102B7000E552E552FD0EDBCF14F0FE0EDBCF15F073
:102B8000040ED89015321432E804FBE114C0E6FFBD
:102B900015C0E6FF95DFE552E552E552E7CFD9FFD4
:102BA0001200D9CFE6FFE1CFD9FFFE0EDBCF14F044
:102BB000500EE76E1418E8AE02D0143403D0E7507C
:102BC000D880145460E3FD0EDBCF15F0190EE76ECC
:102BD0001518E8AE02D0153403D0E750D88015544C
:102BE00052E3FE0EDB06FD0EDB061B0EE66E02EC6C
:102BF00019F0E5525B0EE66E02EC19F0E5520A0E92
:102C0000146E0E6EFD0EDBCF09F0AEEC19F009501C
:102C1000300FE66E02EC19F0E552FD0EDBCF14F03A
:102C200014C009F00A0E0E6EAEEC19F00550300F0C
:102C3000E66E02EC19F0E5523B0EE66E02EC19F07E
:102C4000E5520A0E146E0E6EFE0EDBCF09F0AEECEE
:102C500019F00950300FE66E02EC19F0E552FE0E45
:102C6000DBCF14F014C009F00A0E0E6EAEEC19F0B2
:102C70000550300FE66E02EC19F0E552660EE66E76
:102C800002EC19F0E552E552E7CFD9FF1200D9CF97
:102C9000E6FFE1CFD9FFFC0EDBCFF6FFFD0EDBCF69
:102CA000F7FFFE0EDBCFF8FF0800F55017E0D95014
:102CB000FC0FE96EFF0EDA20EA6EEFCFF6FFEE2A88
:102CC000EFCFF7FF000EEE22EFCFF8FFEE22080065
:102CD000F550E66E02EC19F0E552DDD7E552E7CF8C
:102CE000D9FF1200D9CFE6FFE1CFD9FF030EE126CD
:102CF000DF6AFD0EDBCFE9FFFE0EDBCFEAFFEFCF91
:102D000014F0DF50E76E1418E8AE02D0143403D08C
:102D1000E750D880145401E395D02CEC19F0DE5222
:102D2000F3CFDEFFF4CFDDFFDD52D950010FE96EA6
:102D3000DACFEAFF0A0EEE1803E1ED5001E182D08E
:102D4000D950010FE96EDACFEAFF1B0EEE181CE135
:102D5000ED501AE1010EE76EFD0EDBCFE9FFFE0E2E
:102D6000DBCFEAFFE750E926000EEA22EF6A020E07
:102D7000E76EFD0EDBCFE9FFFE0EDBCFEAFFE7508B
:102D8000E926000EEA227AD0D950010FE96EDACF97
:102D9000EAFF080EEE1820E1ED501EE1DFCF14F03F
:102DA000000EE76E1418E8AE02D0143403D0E750DA
:102DB000D88014549EE2DF06080EE66E02EC19F08D
:102DC000E552200EE66E02EC19F0E552080EE66EB2
:102DD00002EC19F0E5528DD7010EDBCF14F0020E94
:102DE000DBCF15F0153404E214508008000E1554A2
:102DF00001E27FD7010EDBCF16F0020EDBCF17F01A
:102E0000D890175004E6200E165C000E175801E209
:102E100070D7010EDBCFE6FF02EC19F0E552020E8F
:102E2000DF24146E156A14BE1568FD0EDB501424E1
:102E3000E96EFE0EDB501520EA6E010EDBCFEFFFD0
:102E4000DF2A57D7010EE76EFD0EDBCFE9FFFE0E3E
:102E5000DBCFEAFFE750E926000EEA22DFCFEFFFE3
:102E6000020EDF24146E156A14BE1568FD0EDB50C9
:102E70001424E96EFE0EDB501520EA6EEF6A020E96
:102E8000E76EFD0EDBCF14F0FE0EDBCF15F0E75042
:102E90001426000E152214C0F3FF15C0F4FF030E14
:102EA000E15C02E2E16AE552E16EE552E7CFD9FF6B
:022EB00012000E
:0E2EB2004D6963726F5647412064656D6F2055
:102EC000617070002020202020202020232320203B
:102ED00020202323202020232323232020202020E0
:102EE00023202020202020202020202023232020D9
:102EF00020202323202023232020232320202023BD
:102F000023232020202020202020202023232020B5
:102F1000202023232023232020202023202023239C
:102F20002023232020232320202323202323202089
:102F3000202023232023232020202020202323207F
:102F40002020232320232320202323202323202069
:102F5000202023232023232020202020202323205F
:102F60002020232320232320202323202323202049
:102F70002020232320232320232323232023232330
:102F80002323232320232320202323202323202023
:102F90002020232320232320202023232023232019
:102FA0002020232320232320202323202023232009
:102FB00020232320202323202020232320232320F9
:102FC00020202323202323232323202020202323E6
:102FD00023232020202023232020232320232320D9
:102FE00020202323202323202020202020202023D2
:102FF00023202020202020232323202320232320BC
:1030000020202323202323202020204D6963726F5A
:103010005647412064656D6F206170706C69636113
:1030200074696F6E23232020202020202020202060
:103030002020202020202020202020202020202090
:10304000202020207777772E4D6963726F56474195
:103050002E636F6D2C207777772E7365636F6E7399
:103060002E636F6D005052455353204553432054F7
:103070004F204558495400596F7572206E616D6537
:103080002069733A0A00596F75206469646E277469
:1030900020656E74657220796F7572206E616D6542
:1030A0002100456E74657220796F7572206E616DB6
:1030B000653A000808080808080808080800544588
:1030C000535435303D3E00202865786974292069C5
:1030D0007320737570706F727465642E0D0A0071C1
:1030E000000D0A556E737570706F7274656420639D
:1030F0006F6D6D616E642E204F6E6C792000755679
:1031000047413E20000D0A00596F752068617665C1
:103110002070726573736564206B65790044656225
:103120007567206C696E6520310D0A003A20200019
:10313000416E642066696E616C6C79206C61737499
:10314000206D656E75206974656D00536F6D652027
:103150006F74686572206D656E75004D656E7520C3
:103160006974656D206E756D6265722032004D6503
:103170006E75206974656D206E756D6265722031A3
:1031800000496E707574206469616C6F67207465A6
:1031900073740041534349492D417274207465731F
:1031A0007400436F6D6D616E64206C696E6520699B
:1031B0006E7465726661636500546573742073751F
:1031C00062206D656E75005370656564207465736B
:1031D0007400436F6E736F6C652064656275672061
:1031E00064656D6F004D656D6F72792076696577E6
:1031F000657200517569740044796E4D656D0048C3
:04320000656C700089
:0C320400D9CFE6FFE1CFD9FF82B4FED79E
:10321000ACA2FED7FE0EDB50AD6E00009EA8FED71E
:10322000ACA2FED7E552E7CFD9FF1200AB50020B9C
:1032300004E09E50200B01E1AB929E50200B02E176
:10324000000E01D0010E146E156A14BE156814C06C
:10325000F3FF15C0F4FF1200D9CFE6FFE1CFD9FF8D
:10326000020EE126E3DFF3CF14F0F4CF15F0F350B4
:10327000F410F8E0AE50DE6EDD6A9E9AD9CFE9FF19
:10328000DACFEAFFEE50ED1013E1D0DFF3CF14F008
:10329000F4CF15F0F350F410F8E0AE50146E156A48
:1032A000E850010E151214C0DEFF15C0DDFF9E9A16
:1032B000DECF14F0DDCF15F014C0F3FF15C0F4FF1E
:1032C000020EE15C02E2E16AE552E16EE552E7CF0F
:1032D000D9FF1200D9CFE6FFE1CFD9FF030EE126D7
:1032E000AB6AAC6A010EB06EB86AAC98AB8EB886A9
:1032F000AC84B06A0B0EAF6EAC92AB88AC8A9D9A70
:103300009D98949C9484DF6ADF50146E156AD8905F
:10331000155004E6FF0E145C000E155815E2010E60
:10332000DB6ADB50146E156AD890155004E6FF0E68
:10333000145C000E155806E2020EDFCFDBFF010E13
:10334000DB2AEFD7DF2AE0D7030EE15C02E2E16A75
:0C335000E552E16EE552E7CFD9FF120014
:04335C00006A0EAE47
:10336000B4EF19F00E6C001E09AEB9EF19F0096C3C
:10337000001E8EEC1AF009BEC3EF19F000AE000C6F
:10338000096C056C000C00BEC0EF19F00188FF0C41
:10339000006A0EAED1EF19F00D6C0E1EE86A0E2217
:1033A000001E09AED9EF19F0086C091EE86A09225F
:1033B000001E6AEC1AF009BEE9EF19F000AE000C2D
:1033C000086C091EE86A0922046C051EE86A0522D9
:1033D000000C00BEE0EF19F00188FF0C09C013F0EB
:1033E00008C012F008500D02F4CF07F0F3CF06F03A
:1033F00009500E02F4CF09F0F3CF08F00D02F3509C
:103400000726F4500822E86A092212500E02F350EF
:103410000726F4500822E86A09220EAE14EF1AF0CB
:103420001250085E1350095A13AE000C0D50085E7E
:063430000E50095A000CC9
:0A343600060EF66E000EF76E000E93
:10344000F86E00010900F550BD6F0900F550BE6F20
:1034500003E1BD6701D03DD00900F550B86F090008
:10346000F550B96F0900F550BA6F09000900F55021
:10347000E96E0900F550EA6E090009000900F550EF
:10348000BB6F0900F550BC6F09000900F6CFBFF013
:10349000F7CFC0F0F8CFC1F0B8C0F6FFB9C0F7FF62
:1034A000BAC0F8FF0001BB5302E1BC5307E00900BA
:1034B000F550EE6EBB07F8E2BC07F9D7BFC0F6FFC8
:1034C000C0C0F7FFC1C0F8FF0001BD07000EBE5B22
:0434D000BFD7120050
:0C34D400056A046A100EE76ED8900836F6
:1034E0000936043605360D50045C0E50055805E3C8
:1034F0000D50045E0E50055A082AE72EF0D7120030
:1035000013EE00F023EE00F0F86A019C1BEC1AF0B9
:0C351000A3EC1AF073EC0EF0FBD71200D5
:04351C00056A080E26
:10352000E76ED890093605360E50055C02E3056E4D
:08353000092AE72EF7D712006B
:0835380000EE00F00F0EEE6A38
:06354000EA62FDD7120053
:02354600120071
:08354800FF310000000000004B
:1035500000000000F8310000000000000000000042
:10356000000000F33100E53100D23100C73100B96D
:103570003100A231009331008131000000006E3132
:10358000005B31004B31003031000000003031323F
:1035900033343536373839414243444546C42E002A
:020000040030CA
:0100000023DC
:010001000EF0
:010002003FBE
:010003001EDE
:010005008179
:010006008178
:010008000FE8
:01000900C036
:01000A000FE6
:01000B00E014
:01000C000FE4
:01000D0040B2
:00000001FF
