:100000000C9446000C945D000C945D000C945D0013
:100010000C945D000C945D000C945D000C945D00EC
:100020000C945D000C945D000C945D000C945D00DC
:100030000C945D000C945D000C945D000C945D00CC
:100040000C945D000C945D000C945D000C945D00BC
:100050000C945D000C945D000C945D000C945D00AC
:100060000C945D000C945D000C945D000C945D009C
:100070000C945D000C945D000C945D000C945D008C
:100080000C945D000C945D000C945D0011241FBE67
:10009000CFEFD0E1DEBFCDBF12E0A0E0B1E0E8E5F8
:1000A000FCE000E00BBF02C007900D92AE3EB1072E
:1000B000D9F70E94B0010C942A060C94000020E0AD
:1000C00030E088E06AE044ED52E00E949B049C012D
:1000D0000097B9F70895CF93DF9381E061E00E9424
:1000E000F3028BE290E00E947B03C0E0D0E080E06E
:1000F00091E00E94E602CE0160E177E20E940306F1
:10010000CB016AE070E00E940306805D0E94C90591
:10011000CE0168EE73E00E940306CB016AE070E056
:100120000E940306805D0E94C90589E091E00E945B
:10013000E602219683ECC035D807C9F6DF91CF914E
:100140000895FF920F931F93DF93CF93CDB7DEB740
:10015000A8970FB6F894DEBF0FBECDBF87E090E042
:100160000E947B030E94B70388E2F82E8E010F5F86
:100170001F4FF9828BE090E00E947B0384E191E0C5
:100180000E94E60287E090E00E947B03C8010E9483
:100190009F02FC01009731F08081813719F4818141
:1001A0008823C9F08FE090E00E947B038BE191E00F
:1001B0000E94E60289E090E00E947B0388E391E0E0
:1001C0000E94E6028FE090E00E947B038AE391E0C8
:1001D0000E94E602CECFA8960FB6F894DEBF0FBEFF
:1001E000CDBFCF91DF911F910F91FF9008950F9395
:1001F0001F93DF93CF93CDB7DEB7A8970FB6F894D0
:10020000DEBF0FBECDBF8AE090E06AE070E048E25A
:1002100050E029E030E00FE110E00E94C4038CE0E0
:100220006CE00E94F30282E591E00E94E6028CE01D
:100230006EE00E94F3028FE090E00E947B0300E0FA
:1002400010E080E20E94C9050F5F1F4F08321105C0
:10025000C1F78CE06EE00E94F30288E28983CE0150
:1002600001960E949F028C018CE060E10E94F302E3
:100270008A81882339F48FE990E00E947B0383E62A
:1002800091E00DC08FE190E00E947B038FE791E049
:100290000E94E6028CE061E10E94F302C8010E9424
:1002A000E6020E948D0387E163E10E94F3028FE979
:1002B00090E00E947B038EE891E00E94E6020E949B
:1002C000D2054B97E1F7A8960FB6F894DEBF0FBEA4
:1002D000CDBFCF91DF911F910F91089587E090E0FE
:1002E0000E947B030E94B70380EA91E00E94E6022D
:1002F0000E94D2054B97E1F7089587E090E00E94B5
:100300007B030E94B70380EA91E00E94E6020E940C
:10031000D2054B97E1F708950F931F9387E090E084
:100320000E947B030E94B70384EC91E00E94E602E6
:100330000E94E205892BC1F30E94D2058C0183ED56
:1003400091E00E94E602802F0E94C90588EE91E0AC
:100350000E94E6020B31110539F71F910F910895A4
:10036000CF93DF930E94E805C0E0D0E084E090E006
:100370000E942A030E94B70380E090E00E944F038E
:1003800086E090E00E942A038BEE91E00E94E60254
:100390000E94AD0384E090E00E942A0382E090E096
:1003A0000E944F0385E065E043E752E09E010E9412
:1003B0009B04EC018430910511F18530910554F4D2
:1003C00082309105B1F083309105B4F4813091050C
:1003D00069F60AC086309105C1F08630910594F027
:1003E0008730910519F614C080E090E00E947D01ED
:1003F000BDCF0E948C01BACF0E946B00B7CF0E9484
:100400005F00B4CF0E94A100B1CF0E946E01AECFB9
:100410000E94F700ABCFBF92CF92DF92EF92FF9294
:100420000F931F93CF93DF93182F092F84E090E051
:100430000E942A03212F302FC9017C0192E0B92E9E
:100440006FC0670181E06B2D0E94F3028BE090E0AA
:100450000E944F030CE110E0F701002E02C0F59559
:10046000E7950A94E2F7EF70F070E252FD4F808159
:100470000E94C905045010408FEF0C3F180761F728
:100480008DEF91E00E94E6028FE090E00E944F0322
:10049000E70100E010E0E881E295EF70F0E0E25261
:1004A000FD4F80810E94C905E991F0E0EF70F07086
:1004B000E252FD4F80810E94C90580E20E94C90579
:1004C0000730110531F48DE20E94C90580E20E94D7
:1004D000C9050F5F1F4F00311105E9F683EB0E943C
:1004E000C90580E20E94C90500E010E0F6018081A4
:1004F000803208F48EE20E94C9050F5F1F4F003161
:10050000110521F00894C11CD11CF0CF0E94AD034D
:1005100080E190E0E80EF91EB39499E1B91629F054
:100520000E94E205892B09F48CCFDF91CF911F91B6
:100530000F91FF90EF90DF90CF90BF900895FF92C2
:100540000F931F93CF93DF938C01FF242CC00E9445
:10055000D205EC018A30910551F18B31910539F4C6
:10056000F801118298012E5F3F4F128228C0883017
:10057000910569F4FF20B9F0FA9488E00E94C9055A
:1005800080E20E94C90588E00E94C9050CC08097DE
:100590008136910540F48C2F0E94C905F801EF0DBA
:1005A000F11DC283F394F8018081F81680F2F801FE
:1005B000F182EF0DF11D128298012E5F3F4FC901AC
:1005C000DF91CF911F910F91FF900895CF93DF930B
:1005D000EC0103C021960E94C90588818823D1F7C8
:1005E000DF91CF9108950F931F93813580F56A3184
:1005F00070F5082F0150162F11508BE10E94C9058C
:100600008BE50E94C905812F6AE00E94F705805D95
:100610000E94C905812F6AE00E94F705892F805D3D
:100620000E94C9058BE30E94C905802F6AE00E94E1
:10063000F705805D0E94C905802F6AE00E94F705DA
:10064000892F805D0E94C90586E60E94C9051F9119
:100650000F9108951F93182F8BE10E94C9058BE518
:100660000E94C90513FF02C085E301C086E30E9412
:10067000C9058DE60E94C9058BE10E94C9058BE57D
:100680000E94C90584E30E94C905812F8770805D9F
:100690000E94C9058DE60E94C9051F910895CF9358
:1006A000DF93EC018BE10E94C9058BE50E94C9052F
:1006B000C3FF02C081E301C082E30E94C9058DE649
:1006C0000E94C9058BE10E94C9058BE50E94C905FE
:1006D00083E30E94C905CE01877090706AE070E0E4
:1006E0000E941706805D0E94C9058DE60E94C9051B
:1006F000DF91CF9108950F931F938C018F709070AD
:100700000E944F03C80124E0959587952A95E1F74B
:100710000E942A031F910F9108958BE10E94C90541
:100720008BE50E94C90582E30E94C90585E30E940A
:10073000C9058CE60E94C90508958BE10E94C90590
:100740008BE50E94C90582E30E94C90585E30E94EA
:10075000C90588E60E94C90508958BE10E94C90574
:100760008BE50E94C9058BE40E94C90508958BE1C1
:100770000E94C9058BE50E94C90582E30E94C90554
:100780008AE40E94C90508958F929F92AF92BF920A
:10079000CF92DF92EF92FF920F931F93CF93DF934D
:1007A000E82EF62E6A015901C8010E947B038E2DA6
:1007B0006F2D0E94F3028AED0E94C90500E010E04F
:1007C00046010894811C911C05C084EC0E94C90557
:1007D0000F5F1F4F80169106C4F78FEB0E94C9056B
:1007E000C0E0D0E0F3941DC06F2D6C0F8E2D0E94E1
:1007F000F30283EB0E94C90580E20E94C90500E074
:1008000010E005C080E20E94C9050F5F1F4F0C1564
:100810001D05C4F380E20E94C90583EB0E94C9054F
:100820002196CA15DB0504F3FA0C8E2D6F2D0E945C
:10083000F30280EC0E94C90500E010E005C084ECE2
:100840000E94C9050F5F1F4F80169106C4F789EDFE
:100850000E94C905DF91CF911F910F91FF90EF90FA
:10086000DF90CF90BF90AF909F908F900895CF92E0
:10087000DF92EF92FF920F931F93CF93DF93182F86
:10088000092F81E069E10E94F302212F302FC90175
:100890006C01EE24FF248FE090E00E944F0380E083
:1008A00090E00E942A03E114F10461F080E20E94CA
:1008B000C90589E0E816F10429F481E30E94C9051D
:1008C00080E306C0C7016AE070E00E9417068F5CF3
:1008D0000E94C90580E090E00E944F0386E090E00E
:1008E0000E942A03F601C081D18100E010E0209728
:1008F00029F08881882311F0219601C080E20E94AE
:10090000C9050F5F1F4F0630110589F70894E11CD8
:10091000F11C82E090E0C80ED91E9AE0E916F104BD
:1009200009F0B9CFDF91CF911F910F91FF90EF9018
:10093000DF90CF9008952F923F924F925F926F92E7
:100940007F928F929F92AF92BF92CF92DF92EF925F
:10095000FF920F931F93DF93CF93CDB7DEB7299705
:100960000FB6F894DEBF0FBECDBF682E69834A83F1
:100970005B8379010894E108F108DA01882499245D
:100980004AE050E010C02F5F3F4FFB01E20FF31F22
:1009900080818823C1F7421753070CF4A9010894FA
:1009A000811C911C12966D917C91119761157105B6
:1009B00019F020E030E0E9CF82E0282E312C240E1F
:1009C000351EF7FC03C08E149F0414F4EE24FF249C
:1009D00021010894411C511C29812F5F2C83280D73
:1009E0002D83C40101979F838E830E948D0380E62F
:1009F00090E00E947B03862D69810E94F3028AEDBC
:100A00000E94C90500E010E005C084EC0E94C90501
:100A10000F5F1F4F40165106C4F78FEB0E94C905A8
:100A20008A819B819C0159017C80CC24DD2445C0B6
:100A3000862D672D0E94F30283EB0E94C90580E298
:100A40000E94C905CE14DF0421F48BE090E00E94DF
:100A50007B0300E010E0198618861AC0E885F98546
:100A6000309739F08081882321F03196F987E88723
:100A700001C080E20E94C90528853985232B31F405
:100A8000F5010190F081E02DF987E8870F5F1F4F96
:100A9000021513051CF380E690E00E947B0380E2C0
:100AA0000E94C90583EB0E94C9050894C11CD11C92
:100AB00022E030E0A20EB31E7394C814D9040CF4E3
:100AC000B7CF862D6D810E94F30280EC0E94C9058C
:100AD00000E010E005C084EC0E94C9050F5F1F4FC5
:100AE00040165106C4F789ED0E94C9050E94E2052F
:100AF000892BE1F30E94E205892B09F476CF0E944D
:100B0000D2058B31910509F18C31910524F40A97B6
:100B100009F06BCF1FC031E08834930729F080556E
:100B2000914009F062CF0AC01E141F0424F40894F7
:100B3000E108F1085ACFEE80FF8057CFC701019638
:100B4000B4010E9417067C0150CF0E949D0320E053
:100B500030E005C00E949D0397012F5F3F4FC90100
:100B600029960FB6F894DEBF0FBECDBFCF91DF91AF
:100B70001F910F91FF90EF90DF90CF90BF90AF90BB
:100B80009F908F907F906F905F904F903F902F90AD
:100B90000895B799FECF5D9BFECF8CB95E9BFECFCB
:100BA000589808955F9BFECF8CB1282F30E0211517
:100BB000310531F45F9BFECF8CB1282F30E03160DE
:100BC000C90108952BB130E020783070C901089533
:100BD000BF98C7981092900085E089B9E5E9F0E0E8
:100BE0008081866080838AB188618AB90895991B63
:100BF00079E004C0991F961708F0961B881F7A9514
:100C0000C9F780950895AA1BBB1B51E107C0AA1F15
:100C1000BB1FA617B70710F0A61BB70B881F991F9D
:100C20005A95A9F780959095BC01CD01089597FB41
:100C3000092E07260AD077FD04D0E5DF06D0002074
:100C40001AF4709561957F4F0895F6F79095819508
:080C50009F4F0895F894FFCFB7
:100C58005445535435303D3E000808080808080834
:100C680008080800755647413E20000D0A556E7366
:100C78007570706F7274656420636F6D6D616E64FA
:100C88002E204F6E6C7920007100202865786974D9
:100C98002920697320737570706F727465642E0DE6
:100CA8000A00456E74657220796F7572206E616DE9
:100CB800653A00596F75206469646E277420656E03
:100CC80074657220796F7572206E616D65210059A7
:100CD8006F7572206E616D652069733A0A00505213
:100CE8004553532045534320544F204558495400F9
:100CF8004E6F7420656E6F75676874206D656D6FD3
:100D0800727920666F7220746869732066656174F1
:100D1800757265004465627567206C696E6520317F
:100D28000D0A00596F7520686176652070726573C9
:100D3800736564206B6579000D0A004D6963726FF5
:100D48005647412064656D6F20617070003A20201D
:100D5800004D656D6F72792076696577657200431D
:100D68006F6E736F6C652064656275672064656D6E
:100D78006F005370656564207465737400546573FF
:100D88007420737562206D656E7500436F6D6D61BB
:100D98006E64206C696E6520696E74657266616345
:100DA800650041534349492D417274207465737439
:100DB80000496E707574206469616C6F6720746592
:100DC80073740001020F0222022D023B02520261DB
:100DD8000200004D656E75206974656D206E756D35
:100DE8006265722031004D656E75206974656D20ED
:100DF8006E756D626572203200536F6D65206F7479
:100E0800686572206D656E7500416E642066696E56
:100E1800616C6C79206C617374206D656E752069E6
:100E280074656D0083029602A902B9020000303190
:0E0E380032333435363738394142434445466B
:00000001FF